Archive member included to satisfy reference by file (symbol)

c:/nxp/lpcxpresso_8.2.2_650/lpcxpresso/tools/bin/../lib/gcc/arm-none-eabi/5.4.1/../../../../arm-none-eabi/lib/armv7-m\libcr_c.a(__weak__main.o)
                              ./src/cr_startup_lpc177x_8x.o (__main)
c:/nxp/lpcxpresso_8.2.2_650/lpcxpresso/tools/bin/../lib/gcc/arm-none-eabi/5.4.1/armv7-m\libcr_eabihelpers.a(double.o)
                              ./src/clase7_ejercicio15.o (__aeabi_ddiv)

Discarded input sections

 .group         0x00000000        0x8 ./src/clase7_ejercicio15.o
 .group         0x00000000        0x8 ./src/clase7_ejercicio15.o
 .text          0x00000000        0x0 ./src/clase7_ejercicio15.o
 .data          0x00000000        0x0 ./src/clase7_ejercicio15.o
 .bss           0x00000000        0x0 ./src/clase7_ejercicio15.o
 .rodata.FIO0DIR
                0x00000000        0x4 ./src/clase7_ejercicio15.o
 .rodata.FIO0SET
                0x00000000        0x4 ./src/clase7_ejercicio15.o
 .rodata.FIO0CLR
                0x00000000        0x4 ./src/clase7_ejercicio15.o
 .rodata.PCONP  0x00000000        0x4 ./src/clase7_ejercicio15.o
 .rodata.AD0CR  0x00000000        0x4 ./src/clase7_ejercicio15.o
 .rodata.AD0INTEN
                0x00000000        0x4 ./src/clase7_ejercicio15.o
 .rodata.PINMODE1
                0x00000000        0x4 ./src/clase7_ejercicio15.o
 .rodata.PINSEL1
Memory Configuration

Name             Origin             Length             Attributes
MFlash512        0x00000000         0x00080000         xr
RamLoc32         0x10000000         0x00008000         xrw
RamAHB32         0x2007c000         0x00008000         xrw
*default*        0x00000000         0xffffffff

Linker script and memory map

LOAD ./src/clase7_ejercicio15.o
LOAD ./src/cr_startup_lpc177x_8x.o
LOAD ./src/crp.o
START GROUP
LOAD c:/nxp/lpcxpresso_8.2.2_650/lpcxpresso/tools/bin/../lib/gcc/arm-none-eabi/5.4.1/../../../../arm-none-eabi/lib/armv7-m\libcr_c.a
LOAD c:/nxp/lpcxpresso_8.2.2_650/lpcxpresso/tools/bin/../lib/gcc/arm-none-eabi/5.4.1/armv7-m\libcr_eabihelpers.a
END GROUP
                0x00000000                __base_MFlash512 = 0x0
                0x00000000                __base_Flash = 0x0
                0x00080000                __top_MFlash512 = 0x80000
                0x00080000                __top_Flash = 0x80000
                0x10000000                __base_RamLoc32 = 0x10000000
                0x10000000                __base_RAM = 0x10000000
                0x10008000                __top_RamLoc32 = 0x10008000
                0x10008000                __top_RAM = 0x10008000
                0x2007c000                __base_RamAHB32 = 0x2007c000
                0x2007c000                __base_RAM2 = 0x2007c000
                0x20084000                __top_RamAHB32 = 0x20084000
                0x20084000                __top_RAM2 = 0x20084000

.text           0x00000000      0xb98
 FILL mask 0xff
                0x00000000                __vectors_start__ = ABSOLUTE (.)
 *(.isr_vector)
 .isr_vector    0x00000000       0xe4 ./src/cr_startup_lpc177x_8x.o
                0x00000000                g_pfnVectors
                0x000000e4                . = ALIGN (0x4)
                0x000000e4                __section_table_start = .
                0x000000e4                __data_section_table = .
                0x000000e4        0x4 LONG 0xb98 LOADADDR (.data)
                0x000000e8        0x4 LONG 0x10000000 ADDR (.data)
                0x000000ec        0x4 LONG 0x0 SIZEOF (.data)
                0x000000f0        0x4 LONG 0xb98 LOADADDR (.data_RAM2)
                0x000000f4        0x4 LONG 0x2007c000 ADDR (.data_RAM2)
                0x000000f8        0x4 LONG 0x0 SIZEOF (.data_RAM2)
                0x000000fc                __data_section_table_end = .
                0x000000fc                __bss_section_table = .
                0x000000fc        0x4 LONG 0x10000000 ADDR (.bss)
                0x00000100        0x4 LONG 0x8 SIZEOF (.bss)
                0x00000104        0x4 LONG 0x2007c000 ADDR (.bss_RAM2)
                0x00000108        0x4 LONG 0x0 SIZEOF (.bss_RAM2)
                0x0000010c                __bss_section_table_end = .
                0x0000010c                __section_table_end = .
 *(.after_vectors*)
 .after_vectors
                0x0000010c      0x140 ./src/cr_startup_lpc177x_8x.o
                0x0000010c                data_init
                0x00000150                bss_init
                0x00000188                ResetISR
                0x000001fc                NMI_Handler
                0x00000204                HardFault_Handler
                0x0000020c                MemManage_Handler
                0x00000214                BusFault_Handler
                0x0000021c                UsageFault_Handler
                0x00000224                SVC_Handler
                0x0000022c                DebugMon_Handler
                0x00000234                PendSV_Handler
                0x0000023c                SysTick_Handler
                0x00000244                EINT2_IRQHandler
                0x00000244                UART1_IRQHandler
                0x00000244                EINT3_IRQHandler
                0x00000244                CANActivity_IRQHandler
                0x00000244                TIMER3_IRQHandler
                0x00000244                UART0_IRQHandler
                0x00000244                I2C0_IRQHandler
                0x00000244                PWM1_IRQHandler
                0x00000244                I2C1_IRQHandler
                0x00000244                PLL0_IRQHandler
                0x00000244                CAN_IRQHandler
                0x00000244                PLL1_IRQHandler
                0x00000244                RIT_IRQHandler
                0x00000244                I2S_IRQHandler
                0x00000244                I2C2_IRQHandler
                0x00000244                RTC_IRQHandler
                0x00000244                TIMER0_IRQHandler
                0x00000244                SPI_IRQHandler
                0x00000244                LCD_IRQHandler
                0x00000244                IntDefaultHandler
                0x00000244                EINT1_IRQHandler
                0x00000244                UART2_IRQHandler
                0x00000244                UART4_IRQHandler
                0x00000244                MCI_IRQHandler
                0x00000244                SSP1_IRQHandler
                0x00000244                USB_IRQHandler
                0x00000244                BOD_IRQHandler
                0x00000244                TIMER2_IRQHandler
                0x00000244                WDT_IRQHandler
                0x00000244                USBActivity_IRQHandler
                0x00000244                QEI_IRQHandler
                0x00000244                EINT0_IRQHandler
                0x00000244                PWM0_IRQHandler
                0x00000244                SSP2_IRQHandler
                0x00000244                EEPROM_IRQHandler
                0x00000244                SSP0_IRQHandler
                0x00000244                DMA_IRQHandler
                0x00000244                GPIO_IRQHandler
                0x00000244                UART3_IRQHandler
                0x00000244                MCPWM_IRQHandler
                0x00000244                ENET_IRQHandler
                0x000002fc                . = 0x2fc
 *fill*         0x0000024c       0xb0 ff
                0x000002fc                PROVIDE (__CRP_WORD_START__, .)
 *(.crp)
 .crp           0x000002fc        0x4 ./src/crp.o
                0x000002fc                CRP_WORD
                0x00000300                PROVIDE (__CRP_WORD_END__, .)
                0x00000001                ASSERT (! ((__CRP_WORD_START__ == __CRP_WORD_END__)), Linker CRP Enabled, but no CRP_WORD provided within application)
 *(.text*)
 .text.config_GPIO
                0x00000300       0x30 ./src/clase7_ejercicio15.o
                0x00000300                config_GPIO
 .text.config_ADC
                0x00000330       0xb0 ./src/clase7_ejercicio15.o
                0x00000330                config_ADC
 .text.config_TIMER1
                0x000003e0       0x80 ./src/clase7_ejercicio15.o
                0x000003e0                config_TIMER1
 .text.enableInterrupts
                0x00000460       0x28 ./src/clase7_ejercicio15.o
                0x00000460                enableInterrupts
 .text.display  0x00000488       0x2c ./src/clase7_ejercicio15.o
                0x00000488                display
 *fill*         0x000004b4        0x4 ff
 .text.ADC_IRQHandler
                0x000004b8      0x154 ./src/clase7_ejercicio15.o
                0x000004b8                ADC_IRQHandler
 .text.TIMER1_IRQHandler
                0x0000060c       0xa4 ./src/clase7_ejercicio15.o
                0x0000060c                TIMER1_IRQHandler
 .text.main     0x000006b0       0x18 ./src/clase7_ejercicio15.o
                0x000006b0                main
 .text.__weak_main
                0x000006c8        0x4 c:/nxp/lpcxpresso_8.2.2_650/lpcxpresso/tools/bin/../lib/gcc/arm-none-eabi/5.4.1/../../../../arm-none-eabi/lib/armv7-m\libcr_c.a(__weak__main.o)
                0x000006c8                __weak_main
                0x000006c8                __main
 .text.__aeabi_ddiv
                0x000006cc      0x138 c:/nxp/lpcxpresso_8.2.2_650/lpcxpresso/tools/bin/../lib/gcc/arm-none-eabi/5.4.1/armv7-m\libcr_eabihelpers.a(double.o)
                0x000006cc                __aeabi_ddiv
 .text.__aeabi_dsub
                0x00000804      0x1a0 c:/nxp/lpcxpresso_8.2.2_650/lpcxpresso/tools/bin/../lib/gcc/arm-none-eabi/5.4.1/armv7-m\libcr_eabihelpers.a(double.o)
                0x00000804                __aeabi_dsub
 .text.__aeabi_dadd
                0x000009a4      0x10c c:/nxp/lpcxpresso_8.2.2_650/lpcxpresso/tools/bin/../lib/gcc/arm-none-eabi/5.4.1/armv7-m\libcr_eabihelpers.a(double.o)
                0x000009a4                __aeabi_dadd
 .text.__aeabi_d2uiz
                0x00000ab0       0x30 c:/nxp/lpcxpresso_8.2.2_650/lpcxpresso/tools/bin/../lib/gcc/arm-none-eabi/5.4.1/armv7-m\libcr_eabihelpers.a(double.o)
                0x00000ab0                __aeabi_d2uiz
 .text.__bhs_ui2d
                0x00000ae0       0x46 c:/nxp/lpcxpresso_8.2.2_650/lpcxpresso/tools/bin/../lib/gcc/arm-none-eabi/5.4.1/armv7-m\libcr_eabihelpers.a(double.o)
                0x00000ae0                __bhs_ui2d
 .text.__aeabi_i2d
                0x00000b26       0x10 c:/nxp/lpcxpresso_8.2.2_650/lpcxpresso/tools/bin/../lib/gcc/arm-none-eabi/5.4.1/armv7-m\libcr_eabihelpers.a(double.o)
                0x00000b26                __aeabi_i2d
 .text.__aeabi_dcmplt
                0x00000b36       0x54 c:/nxp/lpcxpresso_8.2.2_650/lpcxpresso/tools/bin/../lib/gcc/arm-none-eabi/5.4.1/armv7-m\libcr_eabihelpers.a(double.o)
                0x00000b36                __aeabi_dcmplt
 *(.rodata .rodata.* .constdata .constdata.*)
 *fill*         0x00000b8a        0x2 ff
 .rodata.dec_to_7seg_cc
                0x00000b8c        0xa ./src/clase7_ejercicio15.o
                0x00000b8c                dec_to_7seg_cc
                0x00000b98                . = ALIGN (0x4)
 *fill*         0x00000b96        0x2 ff

.glue_7         0x00000b98        0x0
 .glue_7        0x00000b98        0x0 linker stubs

.glue_7t        0x00000b98        0x0
 .glue_7t       0x00000b98        0x0 linker stubs

.vfp11_veneer   0x00000b98        0x0
 .vfp11_veneer  0x00000b98        0x0 linker stubs

.v4_bx          0x00000b98        0x0
 .v4_bx         0x00000b98        0x0 linker stubs

.iplt           0x00000b98        0x0
 .iplt          0x00000b98        0x0 ./src/clase7_ejercicio15.o

.rel.dyn        0x00000b98        0x0
 .rel.iplt      0x00000b98        0x0 ./src/clase7_ejercicio15.o

.ARM.extab
 *(.ARM.extab* .gnu.linkonce.armextab.*)
                0x00000b98                __exidx_start = .

.ARM.exidx
 *(.ARM.exidx* .gnu.linkonce.armexidx.*)
                0x00000b98                __exidx_end = .
                0x00000b98                _etext = .

.data_RAM2      0x2007c000        0x0 load address 0x00000b98
 FILL mask 0xff
                [!provide]                PROVIDE (__start_data_RAM2, .)
 *(.ramfunc.$RAM2)
 *(.ramfunc.$RamAHB32)
 *(.data.$RAM2*)
 *(.data.$RamAHB32*)
                0x2007c000                . = ALIGN (0x4)
                [!provide]                PROVIDE (__end_data_RAM2, .)

.uninit_RESERVED
                0x10000000        0x0
 *(.bss.$RESERVED*)
                0x10000000                . = ALIGN (0x4)
                0x10000000                _end_uninit_RESERVED = .

.data           0x10000000        0x0 load address 0x00000b98
 FILL mask 0xff
                0x10000000                _data = .
 *(vtable)
 *(.ramfunc*)
 *(.data*)
                0x10000000                . = ALIGN (0x4)
                0x10000000                _edata = .

.igot.plt       0x10000000        0x0 load address 0x00000b98
 .igot.plt      0x10000000        0x0 ./src/clase7_ejercicio15.o

.bss_RAM2       0x2007c000        0x0
                [!provide]                PROVIDE (__start_bss_RAM2, .)
 *(.bss.$RAM2*)
 *(.bss.$RamAHB32*)
                0x2007c000                . = ALIGN ((. != 0x0)?0x4:0x1)
                [!provide]                PROVIDE (__end_bss_RAM2, .)

.bss            0x10000000        0x8
                0x10000000                _bss = .
 *(.bss*)
 .bss.unidad    0x10000000        0x2 ./src/clase7_ejercicio15.o
                0x10000000                unidad
 .bss.decima    0x10000002        0x2 ./src/clase7_ejercicio15.o
                0x10000002                decima
 .bss.EnableUnidad.3747
                0x10000004        0x2 ./src/clase7_ejercicio15.o
 *(COMMON)
                0x10000008                . = ALIGN (0x4)
 *fill*         0x10000006        0x2 
                0x10000008                _ebss = .
                [!provide]                PROVIDE (end, .)

.noinit_RAM2    0x2007c000        0x0
 *(.noinit.$RAM2*)
 *(.noinit.$RamAHB32*)
                0x2007c000                . = ALIGN (0x4)

.noinit         0x10000008        0x0
                0x10000008                _noinit = .
 *(.noinit*)
                0x10000008                . = ALIGN (0x4)
                0x10000008                _end_noinit = .
                [!provide]                PROVIDE (_pvHeapStart, DEFINED (__user_heap_base)?__user_heap_base:.)
                0x10008000                PROVIDE (_vStackTop, DEFINED (__user_stack_top)?__user_stack_top:(__top_RamLoc32 - 0x0))
                0xefff7436                PROVIDE (__valid_user_code_checksum, (0x0 - ((((((_vStackTop + (ResetISR + 0x1)) + (NMI_Handler + 0x1)) + (HardFault_Handler + 0x1)) + (DEFINED (MemManage_Handler)?MemManage_Handler:0x0 + 0x1)) + (DEFINED (BusFault_Handler)?BusFault_Handler:0x0 + 0x1)) + (DEFINED (UsageFault_Handler)?UsageFault_Handler:0x0 + 0x1))))
OUTPUT(clase7_ejercicio15.axf elf32-littlearm)

.debug_info     0x00000000      0x5d3
 .debug_info    0x00000000      0x33c ./src/clase7_ejercicio15.o
 .debug_info    0x0000033c      0x258 ./src/cr_startup_lpc177x_8x.o
 .debug_info    0x00000594       0x3f ./src/crp.o

.debug_abbrev   0x00000000      0x24e
 .debug_abbrev  0x00000000       0xeb ./src/clase7_ejercicio15.o
 .debug_abbrev  0x000000eb      0x12d ./src/cr_startup_lpc177x_8x.o
 .debug_abbrev  0x00000218       0x36 ./src/crp.o

.debug_aranges  0x00000000       0xf0
 .debug_aranges
                0x00000000       0x58 ./src/clase7_ejercicio15.o
 .debug_aranges
                0x00000058       0x80 ./src/cr_startup_lpc177x_8x.o
 .debug_aranges
                0x000000d8       0x18 ./src/crp.o

.debug_ranges   0x00000000       0xb8
 .debug_ranges  0x00000000       0x48 ./src/clase7_ejercicio15.o
 .debug_ranges  0x00000048       0x70 ./src/cr_startup_lpc177x_8x.o

.debug_macro    0x00000000      0x9c9
 .debug_macro   0x00000000       0x32 ./src/clase7_ejercicio15.o
 .debug_macro   0x00000032      0x886 ./src/clase7_ejercicio15.o
 .debug_macro   0x000008b8       0xa6 ./src/clase7_ejercicio15.o
 .debug_macro   0x0000095e       0x1d ./src/cr_startup_lpc177x_8x.o
 .debug_macro   0x0000097b       0x1a ./src/crp.o
 .debug_macro   0x00000995       0x34 ./src/crp.o

.debug_line     0x00000000      0x269
 .debug_line    0x00000000      0x11d ./src/clase7_ejercicio15.o
 .debug_line    0x0000011d       0xd4 ./src/cr_startup_lpc177x_8x.o
 .debug_line    0x000001f1       0x78 ./src/crp.o

.debug_str      0x00000000     0x2b87
 .debug_str     0x00000000     0x28dc ./src/clase7_ejercicio15.o
                               0x2901 (size before relaxing)
 .debug_str     0x000028dc      0x1c2 ./src/cr_startup_lpc177x_8x.o
                               0x269f (size before relaxing)
 .debug_str     0x00002a9e       0xe9 ./src/crp.o
                               0x25b7 (size before relaxing)

.comment        0x00000000       0xdc
 .comment       0x00000000       0x6e ./src/clase7_ejercicio15.o
                                 0x6f (size before relaxing)
 .comment       0x0000006e       0x6f ./src/cr_startup_lpc177x_8x.o
 .comment       0x0000006e       0x6f ./src/crp.o
 .comment       0x0000006e       0x6e c:/nxp/lpcxpresso_8.2.2_650/lpcxpresso/tools/bin/../lib/gcc/arm-none-eabi/5.4.1/../../../../arm-none-eabi/lib/armv7-m\libcr_c.a(__weak__main.o)
                                 0x6f (size before relaxing)
 .comment       0x000000dc       0x6f c:/nxp/lpcxpresso_8.2.2_650/lpcxpresso/tools/bin/../lib/gcc/arm-none-eabi/5.4.1/armv7-m\libcr_eabihelpers.a(double.o)

.ARM.attributes
                0x00000000       0x33
 .ARM.attributes
                0x00000000       0x33 ./src/clase7_ejercicio15.o
 .ARM.attributes
                0x00000033       0x33 ./src/cr_startup_lpc177x_8x.o
 .ARM.attributes
                0x00000066       0x33 ./src/crp.o
 .ARM.attributes
                0x00000099       0x33 c:/nxp/lpcxpresso_8.2.2_650/lpcxpresso/tools/bin/../lib/gcc/arm-none-eabi/5.4.1/../../../../arm-none-eabi/lib/armv7-m\libcr_c.a(__weak__main.o)
 .ARM.attributes
                0x000000cc       0x33 c:/nxp/lpcxpresso_8.2.2_650/lpcxpresso/tools/bin/../lib/gcc/arm-none-eabi/5.4.1/armv7-m\libcr_eabihelpers.a(double.o)

.debug_frame    0x00000000      0x288
 .debug_frame   0x00000000      0x118 ./src/clase7_ejercicio15.o
 .debug_frame   0x00000118      0x170 ./src/cr_startup_lpc177x_8x.o
